{
  "_format": "hh-sol-artifact-1",
  "contractName": "PlayersContract",
  "sourceName": "contracts/Players.sol",
  "abi": [
    {
      "inputs": [
        {
          "internalType": "address",
          "name": "_stakingToken",
          "type": "address"
        },
        {
          "internalType": "address",
          "name": "_managementWallet",
          "type": "address"
        }
      ],
      "stateMutability": "nonpayable",
      "type": "constructor"
    },
    {
      "anonymous": false,
      "inputs": [
        {
          "indexed": true,
          "internalType": "address",
          "name": "user",
          "type": "address"
        },
        {
          "indexed": false,
          "internalType": "uint256",
          "name": "amount",
          "type": "uint256"
        }
      ],
      "name": "ReceivedDailyROI",
      "type": "event"
    },
    {
      "anonymous": false,
      "inputs": [
        {
          "indexed": true,
          "internalType": "address",
          "name": "user",
          "type": "address"
        },
        {
          "indexed": false,
          "internalType": "uint256",
          "name": "amount",
          "type": "uint256"
        }
      ],
      "name": "Staked",
      "type": "event"
    },
    {
      "inputs": [],
      "name": "dailyROI",
      "outputs": [
        {
          "internalType": "uint256",
          "name": "",
          "type": "uint256"
        }
      ],
      "stateMutability": "view",
      "type": "function"
    },
    {
      "inputs": [],
      "name": "distributeROI",
      "outputs": [],
      "stateMutability": "nonpayable",
      "type": "function"
    },
    {
      "inputs": [
        {
          "internalType": "address",
          "name": "user",
          "type": "address"
        }
      ],
      "name": "getPlayerReferal",
      "outputs": [
        {
          "internalType": "address",
          "name": "",
          "type": "address"
        }
      ],
      "stateMutability": "view",
      "type": "function"
    },
    {
      "inputs": [
        {
          "internalType": "address",
          "name": "user",
          "type": "address"
        }
      ],
      "name": "getReferedPlayers",
      "outputs": [
        {
          "internalType": "address[]",
          "name": "",
          "type": "address[]"
        }
      ],
      "stateMutability": "view",
      "type": "function"
    },
    {
      "inputs": [
        {
          "internalType": "address",
          "name": "user",
          "type": "address"
        }
      ],
      "name": "isRegister",
      "outputs": [
        {
          "internalType": "bool",
          "name": "",
          "type": "bool"
        }
      ],
      "stateMutability": "view",
      "type": "function"
    },
    {
      "inputs": [],
      "name": "managementWallet",
      "outputs": [
        {
          "internalType": "address",
          "name": "",
          "type": "address"
        }
      ],
      "stateMutability": "view",
      "type": "function"
    },
    {
      "inputs": [],
      "name": "maxDailyROI",
      "outputs": [
        {
          "internalType": "uint256",
          "name": "",
          "type": "uint256"
        }
      ],
      "stateMutability": "view",
      "type": "function"
    },
    {
      "inputs": [],
      "name": "owner",
      "outputs": [
        {
          "internalType": "address",
          "name": "",
          "type": "address"
        }
      ],
      "stateMutability": "view",
      "type": "function"
    },
    {
      "inputs": [
        {
          "internalType": "address",
          "name": "user",
          "type": "address"
        },
        {
          "internalType": "address",
          "name": "refer",
          "type": "address"
        }
      ],
      "name": "register",
      "outputs": [],
      "stateMutability": "nonpayable",
      "type": "function"
    },
    {
      "inputs": [
        {
          "internalType": "address",
          "name": "_managementWallet",
          "type": "address"
        }
      ],
      "name": "setManagementWallet",
      "outputs": [],
      "stateMutability": "nonpayable",
      "type": "function"
    },
    {
      "inputs": [
        {
          "internalType": "uint256",
          "name": "amount",
          "type": "uint256"
        }
      ],
      "name": "stake",
      "outputs": [],
      "stateMutability": "payable",
      "type": "function"
    },
    {
      "inputs": [],
      "name": "stakingToken",
      "outputs": [
        {
          "internalType": "contract IERC20",
          "name": "",
          "type": "address"
        }
      ],
      "stateMutability": "view",
      "type": "function"
    },
    {
      "inputs": [],
      "name": "totalBankersPool",
      "outputs": [
        {
          "internalType": "uint256",
          "name": "",
          "type": "uint256"
        }
      ],
      "stateMutability": "view",
      "type": "function"
    },
    {
      "inputs": [
        {
          "internalType": "address",
          "name": "",
          "type": "address"
        }
      ],
      "name": "totalEarned",
      "outputs": [
        {
          "internalType": "uint256",
          "name": "",
          "type": "uint256"
        }
      ],
      "stateMutability": "view",
      "type": "function"
    },
    {
      "inputs": [],
      "name": "totalPlayersPool",
      "outputs": [
        {
          "internalType": "uint256",
          "name": "",
          "type": "uint256"
        }
      ],
      "stateMutability": "view",
      "type": "function"
    },
    {
      "inputs": [
        {
          "internalType": "uint256",
          "name": "amount",
          "type": "uint256"
        }
      ],
      "name": "withdrawFromBankersPool",
      "outputs": [],
      "stateMutability": "nonpayable",
      "type": "function"
    },
    {
      "inputs": [
        {
          "internalType": "uint256",
          "name": "amount",
          "type": "uint256"
        }
      ],
      "name": "withdrawFromPlayersPool",
      "outputs": [],
      "stateMutability": "nonpayable",
      "type": "function"
    },
    {
      "stateMutability": "payable",
      "type": "receive"
    }
  ],
  "bytecode": "0x6080604052600f600855600f6009556000600a553480156200002057600080fd5b50604051620029da380380620029da83398181016040528101906200004691906200017a565b336000806101000a81548173ffffffffffffffffffffffffffffffffffffffff021916908373ffffffffffffffffffffffffffffffffffffffff16021790555080600160006101000a81548173ffffffffffffffffffffffffffffffffffffffff021916908373ffffffffffffffffffffffffffffffffffffffff16021790555081600260006101000a81548173ffffffffffffffffffffffffffffffffffffffff021916908373ffffffffffffffffffffffffffffffffffffffff1602179055505050620001c1565b600080fd5b600073ffffffffffffffffffffffffffffffffffffffff82169050919050565b6000620001428262000115565b9050919050565b620001548162000135565b81146200016057600080fd5b50565b600081519050620001748162000149565b92915050565b6000806040838503121562000194576200019362000110565b5b6000620001a48582860162000163565b9250506020620001b78582860162000163565b9150509250929050565b61280980620001d16000396000f3fe6080604052600436106101025760003560e01c8063a694fc3a11610095578063ca73dba711610064578063ca73dba714610345578063d90519211461035c578063ec0a9b7514610387578063ec75edf3146103b2578063f5c762cb146103db57610109565b8063a694fc3a14610298578063a9891f0a146102b4578063aa677354146102df578063b06a81891461030857610109565b806372f702f3116100d157806372f702f3146101f05780637656f5061461021b5780637be9878b146102445780638da5cb5b1461026d57610109565b80631b39099c1461010e57806322fdef94146101395780634978c4b814610176578063649aca4a146101b357610109565b3661010957005b600080fd5b34801561011a57600080fd5b50610123610406565b6040516101309190611d1d565b60405180910390f35b34801561014557600080fd5b50610160600480360381019061015b9190611d69565b61042c565b60405161016d9190611db1565b60405180910390f35b34801561018257600080fd5b5061019d60048036038101906101989190611d69565b610482565b6040516101aa9190611d1d565b60405180910390f35b3480156101bf57600080fd5b506101da60048036038101906101d59190611d69565b6104eb565b6040516101e79190611de5565b60405180910390f35b3480156101fc57600080fd5b50610205610503565b6040516102129190611e5f565b60405180910390f35b34801561022757600080fd5b50610242600480360381019061023d9190611ea6565b610529565b005b34801561025057600080fd5b5061026b60048036038101906102669190611d69565b610717565b005b34801561027957600080fd5b506102826107e9565b60405161028f9190611d1d565b60405180910390f35b6102b260048036038101906102ad9190611ea6565b61080d565b005b3480156102c057600080fd5b506102c9610bda565b6040516102d69190611de5565b60405180910390f35b3480156102eb57600080fd5b5061030660048036038101906103019190611ed3565b610be0565b005b34801561031457600080fd5b5061032f600480360381019061032a9190611d69565b610f40565b60405161033c9190611fd1565b60405180910390f35b34801561035157600080fd5b5061035a61100d565b005b34801561036857600080fd5b50610371611a24565b60405161037e9190611de5565b60405180910390f35b34801561039357600080fd5b5061039c611a2a565b6040516103a99190611de5565b60405180910390f35b3480156103be57600080fd5b506103d960048036038101906103d49190611ea6565b611a30565b005b3480156103e757600080fd5b506103f0611c1e565b6040516103fd9190611de5565b60405180910390f35b600160009054906101000a900473ffffffffffffffffffffffffffffffffffffffff1681565b6000600f60008373ffffffffffffffffffffffffffffffffffffffff1673ffffffffffffffffffffffffffffffffffffffff16815260200190815260200160002060009054906101000a900460ff169050919050565b6000600e60008373ffffffffffffffffffffffffffffffffffffffff1673ffffffffffffffffffffffffffffffffffffffff16815260200190815260200160002060009054906101000a900473ffffffffffffffffffffffffffffffffffffffff169050919050565b60116020528060005260406000206000915090505481565b600260009054906101000a900473ffffffffffffffffffffffffffffffffffffffff1681565b60008054906101000a900473ffffffffffffffffffffffffffffffffffffffff1673ffffffffffffffffffffffffffffffffffffffff163373ffffffffffffffffffffffffffffffffffffffff16146105b7576040517f08c379a00000000000000000000000000000000000000000000000000000000081526004016105ae90612076565b60405180910390fd5b6004548111156105fc576040517f08c379a00000000000000000000000000000000000000000000000000000000081526004016105f390612108565b60405180910390fd5b806004600082825461060e9190612157565b92505081905550600260009054906101000a900473ffffffffffffffffffffffffffffffffffffffff1673ffffffffffffffffffffffffffffffffffffffff1663a9059cbb60008054906101000a900473ffffffffffffffffffffffffffffffffffffffff16836040518363ffffffff1660e01b815260040161069292919061218b565b6020604051808303816000875af11580156106b1573d6000803e3d6000fd5b505050506040513d601f19601f820116820180604052508101906106d591906121e0565b610714576040517f08c379a000000000000000000000000000000000000000000000000000000000815260040161070b90612259565b60405180910390fd5b50565b60008054906101000a900473ffffffffffffffffffffffffffffffffffffffff1673ffffffffffffffffffffffffffffffffffffffff163373ffffffffffffffffffffffffffffffffffffffff16146107a5576040517f08c379a000000000000000000000000000000000000000000000000000000000815260040161079c90612076565b60405180910390fd5b80600160006101000a81548173ffffffffffffffffffffffffffffffffffffffff021916908373ffffffffffffffffffffffffffffffffffffffff16021790555050565b60008054906101000a900473ffffffffffffffffffffffffffffffffffffffff1681565b60008111610850576040517f08c379a0000000000000000000000000000000000000000000000000000000008152600401610847906122c5565b60405180910390fd5b600260009054906101000a900473ffffffffffffffffffffffffffffffffffffffff1673ffffffffffffffffffffffffffffffffffffffff166323b872dd3330846040518463ffffffff1660e01b81526004016108af939291906122e5565b6020604051808303816000875af11580156108ce573d6000803e3d6000fd5b505050506040513d601f19601f820116820180604052508101906108f291906121e0565b610931576040517f08c379a000000000000000000000000000000000000000000000000000000000815260040161092890612259565b60405180910390fd5b60006064605083610942919061231c565b61094c919061238d565b90506000606460148461095f919061231c565b610969919061238d565b9050816003600082825461097d91906123be565b92505081905550806004600082825461099691906123be565b92505081905550600060405180608001604052803373ffffffffffffffffffffffffffffffffffffffff1681526020018581526020014281526020016283d600426109e191906123be565b8152509050600b81908060018154018082558091505060019003906000526020600020906004020160009091909190915060008201518160000160006101000a81548173ffffffffffffffffffffffffffffffffffffffff021916908373ffffffffffffffffffffffffffffffffffffffff1602179055506020820151816001015560408201518160020155606082015181600301555050600d60003373ffffffffffffffffffffffffffffffffffffffff1673ffffffffffffffffffffffffffffffffffffffff16815260200190815260200160002060009054906101000a900460ff16610b86576001600d60003373ffffffffffffffffffffffffffffffffffffffff1673ffffffffffffffffffffffffffffffffffffffff16815260200190815260200160002060006101000a81548160ff0219169083151502179055506006339080600181540180825580915050600190039060005260206000200160009091909190916101000a81548173ffffffffffffffffffffffffffffffffffffffff021916908373ffffffffffffffffffffffffffffffffffffffff1602179055505b3373ffffffffffffffffffffffffffffffffffffffff167f9e71bc8eea02a63969f509818f2dafb9254532904319f9dbda79b67bd34a5f3d85604051610bcc9190611de5565b60405180910390a250505050565b60085481565b600f60008373ffffffffffffffffffffffffffffffffffffffff1673ffffffffffffffffffffffffffffffffffffffff16815260200190815260200160002060009054906101000a900460ff1615610c6d576040517f08c379a0000000000000000000000000000000000000000000000000000000008152600401610c649061243e565b60405180910390fd5b600073ffffffffffffffffffffffffffffffffffffffff168173ffffffffffffffffffffffffffffffffffffffff1614610d2e57600f60008273ffffffffffffffffffffffffffffffffffffffff1673ffffffffffffffffffffffffffffffffffffffff16815260200190815260200160002060009054906101000a900460ff16610d2d576040517f08c379a0000000000000000000000000000000000000000000000000000000008152600401610d24906124aa565b60405180910390fd5b5b6005829080600181540180825580915050600190039060005260206000200160009091909190916101000a81548173ffffffffffffffffffffffffffffffffffffffff021916908373ffffffffffffffffffffffffffffffffffffffff1602179055506001600f60008473ffffffffffffffffffffffffffffffffffffffff1673ffffffffffffffffffffffffffffffffffffffff16815260200190815260200160002060006101000a81548160ff02191690831515021790555080600e60008473ffffffffffffffffffffffffffffffffffffffff1673ffffffffffffffffffffffffffffffffffffffff16815260200190815260200160002060006101000a81548173ffffffffffffffffffffffffffffffffffffffff021916908373ffffffffffffffffffffffffffffffffffffffff160217905550600073ffffffffffffffffffffffffffffffffffffffff168173ffffffffffffffffffffffffffffffffffffffff1614610f3c57601060008273ffffffffffffffffffffffffffffffffffffffff1673ffffffffffffffffffffffffffffffffffffffff168152602001908152602001600020829080600181540180825580915050600190039060005260206000200160009091909190916101000a81548173ffffffffffffffffffffffffffffffffffffffff021916908373ffffffffffffffffffffffffffffffffffffffff1602179055505b5050565b6060601060008373ffffffffffffffffffffffffffffffffffffffff1673ffffffffffffffffffffffffffffffffffffffff16815260200190815260200160002080548060200260200160405190810160405280929190818152602001828054801561100157602002820191906000526020600020905b8160009054906101000a900473ffffffffffffffffffffffffffffffffffffffff1673ffffffffffffffffffffffffffffffffffffffff1681526020019060010190808311610fb7575b50505050509050919050565b60008054906101000a900473ffffffffffffffffffffffffffffffffffffffff1673ffffffffffffffffffffffffffffffffffffffff163373ffffffffffffffffffffffffffffffffffffffff161461109b576040517f08c379a000000000000000000000000000000000000000000000000000000000815260040161109290612076565b60405180910390fd5b6000610e106018426110ad919061238d565b6110b7919061238d565b9050600a5481116110fd576040517f08c379a00000000000000000000000000000000000000000000000000000000081526004016110f49061253c565b60405180910390fd5b80600a8190555060005b600b805490508110156112225742600b82815481106111295761112861255c565b5b9060005260206000209060040201600301541161121557600c600b82815481106111565761115561255c565b5b906000526020600020906004020190806001815401808255809150506001900390600052602060002090600402016000909190919091506000820160009054906101000a900473ffffffffffffffffffffffffffffffffffffffff168160000160006101000a81548173ffffffffffffffffffffffffffffffffffffffff021916908373ffffffffffffffffffffffffffffffffffffffff16021790555060018201548160010155600282015481600201556003820154816003015550505b8080600101915050611107565b50600b60006112319190611c24565b6007600061123f9190611c48565b6000805b600c805490508110156112e757600060126000600c848154811061126a5761126961255c565b5b906000526020600020906004020160000160009054906101000a900473ffffffffffffffffffffffffffffffffffffffff1673ffffffffffffffffffffffffffffffffffffffff1673ffffffffffffffffffffffffffffffffffffffff168152602001908152602001600020819055508080600101915050611243565b5060005b600c805490508110156114cc57600b600c828154811061130e5761130d61255c565b5b906000526020600020906004020190806001815401808255809150506001900390600052602060002090600402016000909190919091506000820160009054906101000a900473ffffffffffffffffffffffffffffffffffffffff168160000160006101000a81548173ffffffffffffffffffffffffffffffffffffffff021916908373ffffffffffffffffffffffffffffffffffffffff1602179055506001820154816001015560028201548160020155600382015481600301555050600c81815481106113e0576113df61255c565b5b906000526020600020906004020160010154826113fd91906123be565b9150600c81815481106114135761141261255c565b5b90600052602060002090600402016001015460126000600c848154811061143d5761143c61255c565b5b906000526020600020906004020160000160009054906101000a900473ffffffffffffffffffffffffffffffffffffffff1673ffffffffffffffffffffffffffffffffffffffff1673ffffffffffffffffffffffffffffffffffffffff16815260200190815260200160002060008282546114b891906123be565b9250508190555080806001019150506112eb565b50600c60006114db9190611c24565b6064600380546114eb919061231c565b6114f5919061238d565b6103e860085483611506919061231c565b611510919061238d565b111561156d576103e860085482611527919061231c565b611531919061238d565b606460038054611541919061231c565b61154b919061238d565b600854611558919061231c565b611562919061238d565b600981905550611577565b6008546009819055505b6000805b6007805490508110156119045760006103e860095460126000600786815481106115a8576115a761255c565b5b9060005260206000200160009054906101000a900473ffffffffffffffffffffffffffffffffffffffff1673ffffffffffffffffffffffffffffffffffffffff1673ffffffffffffffffffffffffffffffffffffffff16815260200190815260200160002054611618919061231c565b611622919061238d565b90506064600582611633919061231c565b61163d919061238d565b8361164891906123be565b9250600083826116589190612157565b905080600354101561169f576040517f08c379a0000000000000000000000000000000000000000000000000000000008152600401611696906125fd565b60405180910390fd5b80600360008282546116b19190612157565b925050819055508160116000600786815481106116d1576116d061255c565b5b9060005260206000200160009054906101000a900473ffffffffffffffffffffffffffffffffffffffff1673ffffffffffffffffffffffffffffffffffffffff1673ffffffffffffffffffffffffffffffffffffffff168152602001908152602001600020600082825461174591906123be565b92505081905550600260009054906101000a900473ffffffffffffffffffffffffffffffffffffffff1673ffffffffffffffffffffffffffffffffffffffff1663a9059cbb6007858154811061179e5761179d61255c565b5b9060005260206000200160009054906101000a900473ffffffffffffffffffffffffffffffffffffffff16836040518363ffffffff1660e01b81526004016117e792919061218b565b6020604051808303816000875af1158015611806573d6000803e3d6000fd5b505050506040513d601f19601f8201168201806040525081019061182a91906121e0565b611869576040517f08c379a00000000000000000000000000000000000000000000000000000000081526004016118609061268f565b60405180910390fd5b6007838154811061187d5761187c61255c565b5b9060005260206000200160009054906101000a900473ffffffffffffffffffffffffffffffffffffffff1673ffffffffffffffffffffffffffffffffffffffff167f3f9fcaeac1c10d0cbebf3c3e9b9710d9242782dea244a442e978ac7087fb401e826040516118ed9190611de5565b60405180910390a25050808060010191505061157b565b50806004600082825461191791906123be565b92505081905550600260009054906101000a900473ffffffffffffffffffffffffffffffffffffffff1673ffffffffffffffffffffffffffffffffffffffff1663a9059cbb600160009054906101000a900473ffffffffffffffffffffffffffffffffffffffff16836040518363ffffffff1660e01b815260040161199d92919061218b565b6020604051808303816000875af11580156119bc573d6000803e3d6000fd5b505050506040513d601f19601f820116820180604052508101906119e091906121e0565b611a1f576040517f08c379a0000000000000000000000000000000000000000000000000000000008152600401611a1690612721565b60405180910390fd5b505050565b60045481565b60035481565b60008054906101000a900473ffffffffffffffffffffffffffffffffffffffff1673ffffffffffffffffffffffffffffffffffffffff163373ffffffffffffffffffffffffffffffffffffffff1614611abe576040517f08c379a0000000000000000000000000000000000000000000000000000000008152600401611ab590612076565b60405180910390fd5b600354811115611b03576040517f08c379a0000000000000000000000000000000000000000000000000000000008152600401611afa906127b3565b60405180910390fd5b8060036000828254611b159190612157565b92505081905550600260009054906101000a900473ffffffffffffffffffffffffffffffffffffffff1673ffffffffffffffffffffffffffffffffffffffff1663a9059cbb60008054906101000a900473ffffffffffffffffffffffffffffffffffffffff16836040518363ffffffff1660e01b8152600401611b9992919061218b565b6020604051808303816000875af1158015611bb8573d6000803e3d6000fd5b505050506040513d601f19601f82011682018060405250810190611bdc91906121e0565b611c1b576040517f08c379a0000000000000000000000000000000000000000000000000000000008152600401611c1290612259565b60405180910390fd5b50565b60095481565b5080546000825560040290600052602060002090810190611c459190611c69565b50565b5080546000825590600052602060002090810190611c669190611cbf565b50565b5b80821115611cbb57600080820160006101000a81549073ffffffffffffffffffffffffffffffffffffffff021916905560018201600090556002820160009055600382016000905550600401611c6a565b5090565b5b80821115611cd8576000816000905550600101611cc0565b5090565b600073ffffffffffffffffffffffffffffffffffffffff82169050919050565b6000611d0782611cdc565b9050919050565b611d1781611cfc565b82525050565b6000602082019050611d326000830184611d0e565b92915050565b600080fd5b611d4681611cfc565b8114611d5157600080fd5b50565b600081359050611d6381611d3d565b92915050565b600060208284031215611d7f57611d7e611d38565b5b6000611d8d84828501611d54565b91505092915050565b60008115159050919050565b611dab81611d96565b82525050565b6000602082019050611dc66000830184611da2565b92915050565b6000819050919050565b611ddf81611dcc565b82525050565b6000602082019050611dfa6000830184611dd6565b92915050565b6000819050919050565b6000611e25611e20611e1b84611cdc565b611e00565b611cdc565b9050919050565b6000611e3782611e0a565b9050919050565b6000611e4982611e2c565b9050919050565b611e5981611e3e565b82525050565b6000602082019050611e746000830184611e50565b92915050565b611e8381611dcc565b8114611e8e57600080fd5b50565b600081359050611ea081611e7a565b92915050565b600060208284031215611ebc57611ebb611d38565b5b6000611eca84828501611e91565b91505092915050565b60008060408385031215611eea57611ee9611d38565b5b6000611ef885828601611d54565b9250506020611f0985828601611d54565b9150509250929050565b600081519050919050565b600082825260208201905092915050565b6000819050602082019050919050565b611f4881611cfc565b82525050565b6000611f5a8383611f3f565b60208301905092915050565b6000602082019050919050565b6000611f7e82611f13565b611f888185611f1e565b9350611f9383611f2f565b8060005b83811015611fc4578151611fab8882611f4e565b9750611fb683611f66565b925050600181019050611f97565b5085935050505092915050565b60006020820190508181036000830152611feb8184611f73565b905092915050565b600082825260208201905092915050565b7f4f6e6c7920636f6e7472616374206f776e65722063616e2063616c6c2074686960008201527f732066756e6374696f6e00000000000000000000000000000000000000000000602082015250565b6000612060602a83611ff3565b915061206b82612004565b604082019050919050565b6000602082019050818103600083015261208f81612053565b9050919050565b7f416d6f756e7420657863656564732042616e6b65727320506f6f6c2062616c6160008201527f6e63650000000000000000000000000000000000000000000000000000000000602082015250565b60006120f2602383611ff3565b91506120fd82612096565b604082019050919050565b60006020820190508181036000830152612121816120e5565b9050919050565b7f4e487b7100000000000000000000000000000000000000000000000000000000600052601160045260246000fd5b600061216282611dcc565b915061216d83611dcc565b925082820390508181111561218557612184612128565b5b92915050565b60006040820190506121a06000830185611d0e565b6121ad6020830184611dd6565b9392505050565b6121bd81611d96565b81146121c857600080fd5b50565b6000815190506121da816121b4565b92915050565b6000602082840312156121f6576121f5611d38565b5b6000612204848285016121cb565b91505092915050565b7f4661696c656420746f207472616e7366657220746f6b656e7300000000000000600082015250565b6000612243601983611ff3565b915061224e8261220d565b602082019050919050565b6000602082019050818103600083015261227281612236565b9050919050565b7f416d6f756e74206d7573742062652067726561746572207468616e207a65726f600082015250565b60006122af602083611ff3565b91506122ba82612279565b602082019050919050565b600060208201905081810360008301526122de816122a2565b9050919050565b60006060820190506122fa6000830186611d0e565b6123076020830185611d0e565b6123146040830184611dd6565b949350505050565b600061232782611dcc565b915061233283611dcc565b925082820261234081611dcc565b9150828204841483151761235757612356612128565b5b5092915050565b7f4e487b7100000000000000000000000000000000000000000000000000000000600052601260045260246000fd5b600061239882611dcc565b91506123a383611dcc565b9250826123b3576123b261235e565b5b828204905092915050565b60006123c982611dcc565b91506123d483611dcc565b92508282019050808211156123ec576123eb612128565b5b92915050565b7f5573657220686173206265656e207265676973746572656420616c7265616479600082015250565b6000612428602083611ff3565b9150612433826123f2565b602082019050919050565b600060208201905081810360008301526124578161241b565b9050919050565b7f5265666572726572206973206e6f742076616c69640000000000000000000000600082015250565b6000612494601583611ff3565b915061249f8261245e565b602082019050919050565b600060208201905081810360008301526124c381612487565b9050919050565b7f416c72656164792070726f63657373656420524f49206469737472696275746960008201527f6f6e000000000000000000000000000000000000000000000000000000000000602082015250565b6000612526602283611ff3565b9150612531826124ca565b604082019050919050565b6000602082019050818103600083015261255581612519565b9050919050565b7f4e487b7100000000000000000000000000000000000000000000000000000000600052603260045260246000fd5b7f496e73756666696369656e742066756e647320696e20506c617965727320506f60008201527f6f6c000000000000000000000000000000000000000000000000000000000000602082015250565b60006125e7602283611ff3565b91506125f28261258b565b604082019050919050565b60006020820190508181036000830152612616816125da565b9050919050565b7f4661696c656420746f207472616e7366657220746f6b656e7320746f2073746160008201527f6b65720000000000000000000000000000000000000000000000000000000000602082015250565b6000612679602383611ff3565b91506126848261261d565b604082019050919050565b600060208201905081810360008301526126a88161266c565b9050919050565b7f4661696c656420746f207472616e7366657220746f6b656e7320746f206d616e60008201527f6167656d656e742077616c6c6574000000000000000000000000000000000000602082015250565b600061270b602e83611ff3565b9150612716826126af565b604082019050919050565b6000602082019050818103600083015261273a816126fe565b9050919050565b7f416d6f756e74206578636565647320506c617965727320506f6f6c2062616c6160008201527f6e63650000000000000000000000000000000000000000000000000000000000602082015250565b600061279d602383611ff3565b91506127a882612741565b604082019050919050565b600060208201905081810360008301526127cc81612790565b905091905056fea264697066735822122058205a2b044d610a3c6ffc5972507dc1f7b983bcb7df0c4401a2b9d03735a1e364736f6c63430008180033",
  "linkReferences": {},
  "deployedLinkReferences": {}
}